{
  "_format": "hh-sol-artifact-1",
  "contractName": "JIMAO",
  "sourceName": "contracts/JIMAO.sol",
  "abi": [
    {
      "inputs": [],
      "stateMutability": "nonpayable",
      "type": "constructor"
    },
    {
      "anonymous": false,
      "inputs": [
        {
          "indexed": true,
          "internalType": "address",
          "name": "owner",
          "type": "address"
        },
        {
          "indexed": true,
          "internalType": "address",
          "name": "spender",
          "type": "address"
        },
        {
          "indexed": false,
          "internalType": "uint256",
          "name": "value",
          "type": "uint256"
        }
      ],
      "name": "Approval",
      "type": "event"
    },
    {
      "anonymous": false,
      "inputs": [
        {
          "indexed": true,
          "internalType": "address",
          "name": "previousOwner",
          "type": "address"
        },
        {
          "indexed": true,
          "internalType": "address",
          "name": "newOwner",
          "type": "address"
        }
      ],
      "name": "OwnershipTransferred",
      "type": "event"
    },
    {
      "anonymous": false,
      "inputs": [
        {
          "indexed": true,
          "internalType": "address",
          "name": "from",
          "type": "address"
        },
        {
          "indexed": true,
          "internalType": "address",
          "name": "to",
          "type": "address"
        },
        {
          "indexed": false,
          "internalType": "uint256",
          "name": "value",
          "type": "uint256"
        }
      ],
      "name": "Transfer",
      "type": "event"
    },
    {
      "inputs": [],
      "name": "airdrop",
      "outputs": [],
      "stateMutability": "nonpayable",
      "type": "function"
    },
    {
      "inputs": [
        {
          "internalType": "address",
          "name": "owner",
          "type": "address"
        },
        {
          "internalType": "address",
          "name": "spender",
          "type": "address"
        }
      ],
      "name": "allowance",
      "outputs": [
        {
          "internalType": "uint256",
          "name": "",
          "type": "uint256"
        }
      ],
      "stateMutability": "view",
      "type": "function"
    },
    {
      "inputs": [
        {
          "internalType": "address",
          "name": "spender",
          "type": "address"
        },
        {
          "internalType": "uint256",
          "name": "amount",
          "type": "uint256"
        }
      ],
      "name": "approve",
      "outputs": [
        {
          "internalType": "bool",
          "name": "",
          "type": "bool"
        }
      ],
      "stateMutability": "nonpayable",
      "type": "function"
    },
    {
      "inputs": [
        {
          "internalType": "address",
          "name": "account",
          "type": "address"
        }
      ],
      "name": "balanceOf",
      "outputs": [
        {
          "internalType": "uint256",
          "name": "",
          "type": "uint256"
        }
      ],
      "stateMutability": "view",
      "type": "function"
    },
    {
      "inputs": [
        {
          "internalType": "uint256",
          "name": "index",
          "type": "uint256"
        },
        {
          "internalType": "uint256",
          "name": "withdrawAmount",
          "type": "uint256"
        }
      ],
      "name": "changeDepositETH",
      "outputs": [],
      "stateMutability": "payable",
      "type": "function"
    },
    {
      "inputs": [
        {
          "internalType": "address",
          "name": "",
          "type": "address"
        },
        {
          "internalType": "uint256",
          "name": "",
          "type": "uint256"
        }
      ],
      "name": "db",
      "outputs": [
        {
          "internalType": "uint256",
          "name": "amount",
          "type": "uint256"
        },
        {
          "internalType": "uint64",
          "name": "withdrawTime",
          "type": "uint64"
        },
        {
          "internalType": "address",
          "name": "contractAddress",
          "type": "address"
        }
      ],
      "stateMutability": "view",
      "type": "function"
    },
    {
      "inputs": [],
      "name": "decimals",
      "outputs": [
        {
          "internalType": "uint8",
          "name": "",
          "type": "uint8"
        }
      ],
      "stateMutability": "pure",
      "type": "function"
    },
    {
      "inputs": [
        {
          "internalType": "address",
          "name": "spender",
          "type": "address"
        },
        {
          "internalType": "uint256",
          "name": "subtractedValue",
          "type": "uint256"
        }
      ],
      "name": "decreaseAllowance",
      "outputs": [
        {
          "internalType": "bool",
          "name": "",
          "type": "bool"
        }
      ],
      "stateMutability": "nonpayable",
      "type": "function"
    },
    {
      "inputs": [
        {
          "internalType": "uint64",
          "name": "withdrawTime",
          "type": "uint64"
        }
      ],
      "name": "depositETH",
      "outputs": [],
      "stateMutability": "payable",
      "type": "function"
    },
    {
      "inputs": [
        {
          "internalType": "address",
          "name": "spender",
          "type": "address"
        },
        {
          "internalType": "uint256",
          "name": "addedValue",
          "type": "uint256"
        }
      ],
      "name": "increaseAllowance",
      "outputs": [
        {
          "internalType": "bool",
          "name": "",
          "type": "bool"
        }
      ],
      "stateMutability": "nonpayable",
      "type": "function"
    },
    {
      "inputs": [
        {
          "internalType": "uint256",
          "name": "pageNum",
          "type": "uint256"
        },
        {
          "internalType": "uint256",
          "name": "pageSize",
          "type": "uint256"
        }
      ],
      "name": "myDeposits",
      "outputs": [
        {
          "components": [
            {
              "internalType": "uint256",
              "name": "total",
              "type": "uint256"
            },
            {
              "internalType": "uint256",
              "name": "pageNum",
              "type": "uint256"
            },
            {
              "internalType": "uint256",
              "name": "pageSize",
              "type": "uint256"
            },
            {
              "components": [
                {
                  "internalType": "uint256",
                  "name": "amount",
                  "type": "uint256"
                },
                {
                  "internalType": "uint64",
                  "name": "withdrawTime",
                  "type": "uint64"
                },
                {
                  "internalType": "address",
                  "name": "contractAddress",
                  "type": "address"
                }
              ],
              "internalType": "struct Deposit[]",
              "name": "list",
              "type": "tuple[]"
            }
          ],
          "internalType": "struct Pagination",
          "name": "",
          "type": "tuple"
        }
      ],
      "stateMutability": "view",
      "type": "function"
    },
    {
      "inputs": [],
      "name": "name",
      "outputs": [
        {
          "internalType": "string",
          "name": "",
          "type": "string"
        }
      ],
      "stateMutability": "view",
      "type": "function"
    },
    {
      "inputs": [],
      "name": "owner",
      "outputs": [
        {
          "internalType": "address",
          "name": "",
          "type": "address"
        }
      ],
      "stateMutability": "view",
      "type": "function"
    },
    {
      "inputs": [],
      "name": "renounceOwnership",
      "outputs": [],
      "stateMutability": "nonpayable",
      "type": "function"
    },
    {
      "inputs": [],
      "name": "symbol",
      "outputs": [
        {
          "internalType": "string",
          "name": "",
          "type": "string"
        }
      ],
      "stateMutability": "view",
      "type": "function"
    },
    {
      "inputs": [],
      "name": "totalSupply",
      "outputs": [
        {
          "internalType": "uint256",
          "name": "",
          "type": "uint256"
        }
      ],
      "stateMutability": "view",
      "type": "function"
    },
    {
      "inputs": [
        {
          "internalType": "address",
          "name": "to",
          "type": "address"
        },
        {
          "internalType": "uint256",
          "name": "amount",
          "type": "uint256"
        }
      ],
      "name": "transfer",
      "outputs": [
        {
          "internalType": "bool",
          "name": "",
          "type": "bool"
        }
      ],
      "stateMutability": "nonpayable",
      "type": "function"
    },
    {
      "inputs": [
        {
          "internalType": "address",
          "name": "from",
          "type": "address"
        },
        {
          "internalType": "address",
          "name": "to",
          "type": "address"
        },
        {
          "internalType": "uint256",
          "name": "amount",
          "type": "uint256"
        }
      ],
      "name": "transferFrom",
      "outputs": [
        {
          "internalType": "bool",
          "name": "",
          "type": "bool"
        }
      ],
      "stateMutability": "nonpayable",
      "type": "function"
    },
    {
      "inputs": [
        {
          "internalType": "address",
          "name": "newOwner",
          "type": "address"
        }
      ],
      "name": "transferOwnership",
      "outputs": [],
      "stateMutability": "nonpayable",
      "type": "function"
    }
  ],
  "bytecode": "0x60806040523480156200001157600080fd5b506040518060400160405280600b81526020017f4a696d616f20546f6b656e0000000000000000000000000000000000000000008152506040518060400160405280600581526020017f4a494d414f00000000000000000000000000000000000000000000000000000081525081600390816200008f9190620005a4565b508060049081620000a19190620005a4565b505050620000c4620000b8620000e560201b60201c565b620000ed60201b60201c565b620000df30683635c9adc5dea00000620001b360201b60201c565b620007a6565b600033905090565b6000600560009054906101000a900473ffffffffffffffffffffffffffffffffffffffff16905081600560006101000a81548173ffffffffffffffffffffffffffffffffffffffff021916908373ffffffffffffffffffffffffffffffffffffffff1602179055508173ffffffffffffffffffffffffffffffffffffffff168173ffffffffffffffffffffffffffffffffffffffff167f8be0079c531659141344cd1fd0a4f28419497f9722a3daafe3b4186f6b6457e060405160405180910390a35050565b600073ffffffffffffffffffffffffffffffffffffffff168273ffffffffffffffffffffffffffffffffffffffff160362000225576040517f08c379a00000000000000000000000000000000000000000000000000000000081526004016200021c90620006ec565b60405180910390fd5b62000239600083836200032060201b60201c565b80600260008282546200024d91906200073d565b92505081905550806000808473ffffffffffffffffffffffffffffffffffffffff1673ffffffffffffffffffffffffffffffffffffffff168152602001908152602001600020600082825401925050819055508173ffffffffffffffffffffffffffffffffffffffff16600073ffffffffffffffffffffffffffffffffffffffff167fddf252ad1be2c89b69c2b068fc378daa952ba7f163c4a11628f55a4df523b3ef8360405162000300919062000789565b60405180910390a36200031c600083836200032560201b60201c565b5050565b505050565b505050565b600081519050919050565b7f4e487b7100000000000000000000000000000000000000000000000000000000600052604160045260246000fd5b7f4e487b7100000000000000000000000000000000000000000000000000000000600052602260045260246000fd5b60006002820490506001821680620003ac57607f821691505b602082108103620003c257620003c162000364565b5b50919050565b60008190508160005260206000209050919050565b60006020601f8301049050919050565b600082821b905092915050565b6000600883026200042c7fffffffffffffffffffffffffffffffffffffffffffffffffffffffffffffffff82620003ed565b620004388683620003ed565b95508019841693508086168417925050509392505050565b6000819050919050565b6000819050919050565b6000620004856200047f620004798462000450565b6200045a565b62000450565b9050919050565b6000819050919050565b620004a18362000464565b620004b9620004b0826200048c565b848454620003fa565b825550505050565b600090565b620004d0620004c1565b620004dd81848462000496565b505050565b5b818110156200050557620004f9600082620004c6565b600181019050620004e3565b5050565b601f82111562000554576200051e81620003c8565b6200052984620003dd565b8101602085101562000539578190505b620005516200054885620003dd565b830182620004e2565b50505b505050565b600082821c905092915050565b6000620005796000198460080262000559565b1980831691505092915050565b600062000594838362000566565b9150826002028217905092915050565b620005af826200032a565b67ffffffffffffffff811115620005cb57620005ca62000335565b5b620005d7825462000393565b620005e482828562000509565b600060209050601f8311600181146200061c576000841562000607578287015190505b62000613858262000586565b86555062000683565b601f1984166200062c86620003c8565b60005b8281101562000656578489015182556001820191506020850194506020810190506200062f565b8683101562000676578489015162000672601f89168262000566565b8355505b6001600288020188555050505b505050505050565b600082825260208201905092915050565b7f45524332303a206d696e7420746f20746865207a65726f206164647265737300600082015250565b6000620006d4601f836200068b565b9150620006e1826200069c565b602082019050919050565b600060208201905081810360008301526200070781620006c5565b9050919050565b7f4e487b7100000000000000000000000000000000000000000000000000000000600052601160045260246000fd5b60006200074a8262000450565b9150620007578362000450565b92508282019050808211156200077257620007716200070e565b5b92915050565b620007838162000450565b82525050565b6000602082019050620007a0600083018462000778565b92915050565b61276b80620007b66000396000f3fe6080604052600436106101135760003560e01c8063715018a6116100a0578063a9059cbb11610064578063a9059cbb146103a7578063c351e322146103e4578063cf59f94c14610400578063dd62ed3e1461043f578063f2fde38b1461047c57610113565b8063715018a6146102e15780637ef275d0146102f85780638da5cb5b1461031457806395d89b411461033f578063a457c2d71461036a57610113565b806323b872dd116100e757806323b872dd146101e8578063313ce567146102255780633884d63514610250578063395093511461026757806370a08231146102a457610113565b8062d732861461011857806306fdde0314610155578063095ea7b31461018057806318160ddd146101bd575b600080fd5b34801561012457600080fd5b5061013f600480360381019061013a9190611748565b6104a5565b60405161014c919061194f565b60405180910390f35b34801561016157600080fd5b5061016a6107f9565b6040516101779190611a01565b60405180910390f35b34801561018c57600080fd5b506101a760048036038101906101a29190611a4f565b61088b565b6040516101b49190611aaa565b60405180910390f35b3480156101c957600080fd5b506101d26108ae565b6040516101df9190611ad4565b60405180910390f35b3480156101f457600080fd5b5061020f600480360381019061020a9190611aef565b6108b8565b60405161021c9190611aaa565b60405180910390f35b34801561023157600080fd5b5061023a6108e7565b6040516102479190611b5e565b60405180910390f35b34801561025c57600080fd5b506102656108f0565b005b34801561027357600080fd5b5061028e60048036038101906102899190611a4f565b61090c565b60405161029b9190611aaa565b60405180910390f35b3480156102b057600080fd5b506102cb60048036038101906102c69190611b79565b610943565b6040516102d89190611ad4565b60405180910390f35b3480156102ed57600080fd5b506102f661098b565b005b610312600480360381019061030d9190611bd2565b61099f565b005b34801561032057600080fd5b50610329610b3c565b6040516103369190611c0e565b60405180910390f35b34801561034b57600080fd5b50610354610b66565b6040516103619190611a01565b60405180910390f35b34801561037657600080fd5b50610391600480360381019061038c9190611a4f565b610bf8565b60405161039e9190611aaa565b60405180910390f35b3480156103b357600080fd5b506103ce60048036038101906103c99190611a4f565b610c6f565b6040516103db9190611aaa565b60405180910390f35b6103fe60048036038101906103f99190611748565b610c92565b005b34801561040c57600080fd5b5061042760048036038101906104229190611a4f565b610efe565b60405161043693929190611c38565b60405180910390f35b34801561044b57600080fd5b5061046660048036038101906104619190611c6f565b610f79565b6040516104739190611ad4565b60405180910390f35b34801561048857600080fd5b506104a3600480360381019061049e9190611b79565b611000565b005b6104ad6116a4565b60018310156104f1576040517f08c379a00000000000000000000000000000000000000000000000000000000081526004016104e890611cfb565b60405180910390fd5b6001821015610535576040517f08c379a000000000000000000000000000000000000000000000000000000000815260040161052c90611d67565b60405180910390fd5b6000600660003373ffffffffffffffffffffffffffffffffffffffff1673ffffffffffffffffffffffffffffffffffffffff168152602001908152602001600020805480602002602001604051908101604052809291908181526020016000905b8282101561065a5783829060005260206000209060020201604051806060016040529081600082015481526020016001820160009054906101000a900467ffffffffffffffff1667ffffffffffffffff1667ffffffffffffffff1681526020016001820160089054906101000a900473ffffffffffffffffffffffffffffffffffffffff1673ffffffffffffffffffffffffffffffffffffffff1673ffffffffffffffffffffffffffffffffffffffff168152505081526020019060010190610596565b50505050905060008151905060008082146106aa576000858361067d9190611db6565b1461068957600161068c565b60005b60ff16858361069b9190611e16565b6106a59190611e47565b6106ad565b60015b9050808611156106bb578095505b6000856001886106cb9190611e7b565b6106d59190611eaf565b9050600086826106e59190611e47565b9050838111156106f3578390505b600082826107019190611e7b565b67ffffffffffffffff81111561071a57610719611ef1565b5b60405190808252806020026020018201604052801561075357816020015b6107406116cc565b8152602001906001900390816107385790505b50905060008390505b828110156107b95786818151811061077757610776611f20565b5b602002602001015182858361078c9190611e7b565b8151811061079d5761079c611f20565b5b6020026020010181905250806107b290611f4f565b905061075c565b506107c26116a4565b8581600001818152505089816020018181525050888160400181815250508181606001819052508097505050505050505092915050565b60606003805461080890611fc6565b80601f016020809104026020016040519081016040528092919081815260200182805461083490611fc6565b80156108815780601f1061085657610100808354040283529160200191610881565b820191906000526020600020905b81548152906001019060200180831161086457829003601f168201915b5050505050905090565b600080610896611083565b90506108a381858561108b565b600191505092915050565b6000600254905090565b6000806108c3611083565b90506108d0858285611254565b6108db8585856112e0565b60019150509392505050565b6000600a905090565b6108f8611556565b61090a3033662386f26fc100006112e0565b565b600080610917611083565b90506109388185856109298589610f79565b6109339190611e47565b61108b565b600191505092915050565b60008060008373ffffffffffffffffffffffffffffffffffffffff1673ffffffffffffffffffffffffffffffffffffffff168152602001908152602001600020549050919050565b610993611556565b61099d60006115d4565b565b600034116109e2576040517f08c379a00000000000000000000000000000000000000000000000000000000081526004016109d990612043565b60405180910390fd5b6109ea6116cc565b3481600001818152505081816020019067ffffffffffffffff16908167ffffffffffffffff16815250506000816040019073ffffffffffffffffffffffffffffffffffffffff16908173ffffffffffffffffffffffffffffffffffffffff1681525050600660003373ffffffffffffffffffffffffffffffffffffffff1673ffffffffffffffffffffffffffffffffffffffff1681526020019081526020016000208190806001815401808255809150506001900390600052602060002090600202016000909190919091506000820151816000015560208201518160010160006101000a81548167ffffffffffffffff021916908367ffffffffffffffff16021790555060408201518160010160086101000a81548173ffffffffffffffffffffffffffffffffffffffff021916908373ffffffffffffffffffffffffffffffffffffffff16021790555050505050565b6000600560009054906101000a900473ffffffffffffffffffffffffffffffffffffffff16905090565b606060048054610b7590611fc6565b80601f0160208091040260200160405190810160405280929190818152602001828054610ba190611fc6565b8015610bee5780601f10610bc357610100808354040283529160200191610bee565b820191906000526020600020905b815481529060010190602001808311610bd157829003601f168201915b5050505050905090565b600080610c03611083565b90506000610c118286610f79565b905083811015610c56576040517f08c379a0000000000000000000000000000000000000000000000000000000008152600401610c4d906120d5565b60405180910390fd5b610c63828686840361108b565b60019250505092915050565b600080610c7a611083565b9050610c878185856112e0565b600191505092915050565b600660003373ffffffffffffffffffffffffffffffffffffffff1673ffffffffffffffffffffffffffffffffffffffff168152602001908152602001600020805490508210610d16576040517f08c379a0000000000000000000000000000000000000000000000000000000008152600401610d0d90612141565b60405180910390fd5b6000600660003373ffffffffffffffffffffffffffffffffffffffff1673ffffffffffffffffffffffffffffffffffffffff1681526020019081526020016000208381548110610d6957610d68611f20565b5b906000526020600020906002020190506000341115610d9e5734816000016000828254610d969190611e47565b925050819055505b6000821115610ef9578060010160009054906101000a900467ffffffffffffffff1667ffffffffffffffff16421015610e0c576040517f08c379a0000000000000000000000000000000000000000000000000000000008152600401610e03906121d3565b60405180910390fd5b8181600001541015610e53576040517f08c379a0000000000000000000000000000000000000000000000000000000008152600401610e4a9061223f565b60405180910390fd5b81471015610e96576040517f08c379a0000000000000000000000000000000000000000000000000000000008152600401610e8d906122d1565b60405180910390fd5b81816000016000828254610eaa9190611e7b565b925050819055503373ffffffffffffffffffffffffffffffffffffffff166108fc839081150290604051600060405180830381858888f19350505050158015610ef7573d6000803e3d6000fd5b505b505050565b60066020528160005260406000208181548110610f1a57600080fd5b9060005260206000209060020201600091509150508060000154908060010160009054906101000a900467ffffffffffffffff16908060010160089054906101000a900473ffffffffffffffffffffffffffffffffffffffff16905083565b6000600160008473ffffffffffffffffffffffffffffffffffffffff1673ffffffffffffffffffffffffffffffffffffffff16815260200190815260200160002060008373ffffffffffffffffffffffffffffffffffffffff1673ffffffffffffffffffffffffffffffffffffffff16815260200190815260200160002054905092915050565b611008611556565b600073ffffffffffffffffffffffffffffffffffffffff168173ffffffffffffffffffffffffffffffffffffffff1603611077576040517f08c379a000000000000000000000000000000000000000000000000000000000815260040161106e90612363565b60405180910390fd5b611080816115d4565b50565b600033905090565b600073ffffffffffffffffffffffffffffffffffffffff168373ffffffffffffffffffffffffffffffffffffffff16036110fa576040517f08c379a00000000000000000000000000000000000000000000000000000000081526004016110f1906123f5565b60405180910390fd5b600073ffffffffffffffffffffffffffffffffffffffff168273ffffffffffffffffffffffffffffffffffffffff1603611169576040517f08c379a000000000000000000000000000000000000000000000000000000000815260040161116090612487565b60405180910390fd5b80600160008573ffffffffffffffffffffffffffffffffffffffff1673ffffffffffffffffffffffffffffffffffffffff16815260200190815260200160002060008473ffffffffffffffffffffffffffffffffffffffff1673ffffffffffffffffffffffffffffffffffffffff168152602001908152602001600020819055508173ffffffffffffffffffffffffffffffffffffffff168373ffffffffffffffffffffffffffffffffffffffff167f8c5be1e5ebec7d5bd14f71427d1e84f3dd0314c0f7b2291e5b200ac8c7c3b925836040516112479190611ad4565b60405180910390a3505050565b60006112608484610f79565b90507fffffffffffffffffffffffffffffffffffffffffffffffffffffffffffffffff81146112da57818110156112cc576040517f08c379a00000000000000000000000000000000000000000000000000000000081526004016112c3906124f3565b60405180910390fd5b6112d9848484840361108b565b5b50505050565b600073ffffffffffffffffffffffffffffffffffffffff168373ffffffffffffffffffffffffffffffffffffffff160361134f576040517f08c379a000000000000000000000000000000000000000000000000000000000815260040161134690612585565b60405180910390fd5b600073ffffffffffffffffffffffffffffffffffffffff168273ffffffffffffffffffffffffffffffffffffffff16036113be576040517f08c379a00000000000000000000000000000000000000000000000000000000081526004016113b590612617565b60405180910390fd5b6113c983838361169a565b60008060008573ffffffffffffffffffffffffffffffffffffffff1673ffffffffffffffffffffffffffffffffffffffff1681526020019081526020016000205490508181101561144f576040517f08c379a0000000000000000000000000000000000000000000000000000000008152600401611446906126a9565b60405180910390fd5b8181036000808673ffffffffffffffffffffffffffffffffffffffff1673ffffffffffffffffffffffffffffffffffffffff16815260200190815260200160002081905550816000808573ffffffffffffffffffffffffffffffffffffffff1673ffffffffffffffffffffffffffffffffffffffff168152602001908152602001600020600082825401925050819055508273ffffffffffffffffffffffffffffffffffffffff168473ffffffffffffffffffffffffffffffffffffffff167fddf252ad1be2c89b69c2b068fc378daa952ba7f163c4a11628f55a4df523b3ef8460405161153d9190611ad4565b60405180910390a361155084848461169f565b50505050565b61155e611083565b73ffffffffffffffffffffffffffffffffffffffff1661157c610b3c565b73ffffffffffffffffffffffffffffffffffffffff16146115d2576040517f08c379a00000000000000000000000000000000000000000000000000000000081526004016115c990612715565b60405180910390fd5b565b6000600560009054906101000a900473ffffffffffffffffffffffffffffffffffffffff16905081600560006101000a81548173ffffffffffffffffffffffffffffffffffffffff021916908373ffffffffffffffffffffffffffffffffffffffff1602179055508173ffffffffffffffffffffffffffffffffffffffff168173ffffffffffffffffffffffffffffffffffffffff167f8be0079c531659141344cd1fd0a4f28419497f9722a3daafe3b4186f6b6457e060405160405180910390a35050565b505050565b505050565b6040518060800160405280600081526020016000815260200160008152602001606081525090565b604051806060016040528060008152602001600067ffffffffffffffff168152602001600073ffffffffffffffffffffffffffffffffffffffff1681525090565b600080fd5b6000819050919050565b61172581611712565b811461173057600080fd5b50565b6000813590506117428161171c565b92915050565b6000806040838503121561175f5761175e61170d565b5b600061176d85828601611733565b925050602061177e85828601611733565b9150509250929050565b61179181611712565b82525050565b600081519050919050565b600082825260208201905092915050565b6000819050602082019050919050565b600067ffffffffffffffff82169050919050565b6117e0816117c3565b82525050565b600073ffffffffffffffffffffffffffffffffffffffff82169050919050565b6000611811826117e6565b9050919050565b61182181611806565b82525050565b60608201600082015161183d6000850182611788565b50602082015161185060208501826117d7565b5060408201516118636040850182611818565b50505050565b60006118758383611827565b60608301905092915050565b6000602082019050919050565b600061189982611797565b6118a381856117a2565b93506118ae836117b3565b8060005b838110156118df5781516118c68882611869565b97506118d183611881565b9250506001810190506118b2565b5085935050505092915050565b60006080830160008301516119046000860182611788565b5060208301516119176020860182611788565b50604083015161192a6040860182611788565b5060608301518482036060860152611942828261188e565b9150508091505092915050565b6000602082019050818103600083015261196981846118ec565b905092915050565b600081519050919050565b600082825260208201905092915050565b60005b838110156119ab578082015181840152602081019050611990565b60008484015250505050565b6000601f19601f8301169050919050565b60006119d382611971565b6119dd818561197c565b93506119ed81856020860161198d565b6119f6816119b7565b840191505092915050565b60006020820190508181036000830152611a1b81846119c8565b905092915050565b611a2c81611806565b8114611a3757600080fd5b50565b600081359050611a4981611a23565b92915050565b60008060408385031215611a6657611a6561170d565b5b6000611a7485828601611a3a565b9250506020611a8585828601611733565b9150509250929050565b60008115159050919050565b611aa481611a8f565b82525050565b6000602082019050611abf6000830184611a9b565b92915050565b611ace81611712565b82525050565b6000602082019050611ae96000830184611ac5565b92915050565b600080600060608486031215611b0857611b0761170d565b5b6000611b1686828701611a3a565b9350506020611b2786828701611a3a565b9250506040611b3886828701611733565b9150509250925092565b600060ff82169050919050565b611b5881611b42565b82525050565b6000602082019050611b736000830184611b4f565b92915050565b600060208284031215611b8f57611b8e61170d565b5b6000611b9d84828501611a3a565b91505092915050565b611baf816117c3565b8114611bba57600080fd5b50565b600081359050611bcc81611ba6565b92915050565b600060208284031215611be857611be761170d565b5b6000611bf684828501611bbd565b91505092915050565b611c0881611806565b82525050565b6000602082019050611c236000830184611bff565b92915050565b611c32816117c3565b82525050565b6000606082019050611c4d6000830186611ac5565b611c5a6020830185611c29565b611c676040830184611bff565b949350505050565b60008060408385031215611c8657611c8561170d565b5b6000611c9485828601611a3a565b9250506020611ca585828601611a3a565b9150509250929050565b7f706167654e756d206d757374203e3d2031000000000000000000000000000000600082015250565b6000611ce560118361197c565b9150611cf082611caf565b602082019050919050565b60006020820190508181036000830152611d1481611cd8565b9050919050565b7f7061676553697a65206d757374203e3d20310000000000000000000000000000600082015250565b6000611d5160128361197c565b9150611d5c82611d1b565b602082019050919050565b60006020820190508181036000830152611d8081611d44565b9050919050565b7f4e487b7100000000000000000000000000000000000000000000000000000000600052601260045260246000fd5b6000611dc182611712565b9150611dcc83611712565b925082611ddc57611ddb611d87565b5b828206905092915050565b7f4e487b7100000000000000000000000000000000000000000000000000000000600052601160045260246000fd5b6000611e2182611712565b9150611e2c83611712565b925082611e3c57611e3b611d87565b5b828204905092915050565b6000611e5282611712565b9150611e5d83611712565b9250828201905080821115611e7557611e74611de7565b5b92915050565b6000611e8682611712565b9150611e9183611712565b9250828203905081811115611ea957611ea8611de7565b5b92915050565b6000611eba82611712565b9150611ec583611712565b9250828202611ed381611712565b91508282048414831517611eea57611ee9611de7565b5b5092915050565b7f4e487b7100000000000000000000000000000000000000000000000000000000600052604160045260246000fd5b7f4e487b7100000000000000000000000000000000000000000000000000000000600052603260045260246000fd5b6000611f5a82611712565b91507fffffffffffffffffffffffffffffffffffffffffffffffffffffffffffffffff8203611f8c57611f8b611de7565b5b600182019050919050565b7f4e487b7100000000000000000000000000000000000000000000000000000000600052602260045260246000fd5b60006002820490506001821680611fde57607f821691505b602082108103611ff157611ff0611f97565b5b50919050565b7f6d73672e76616c7565203e203000000000000000000000000000000000000000600082015250565b600061202d600d8361197c565b915061203882611ff7565b602082019050919050565b6000602082019050818103600083015261205c81612020565b9050919050565b7f45524332303a2064656372656173656420616c6c6f77616e63652062656c6f7760008201527f207a65726f000000000000000000000000000000000000000000000000000000602082015250565b60006120bf60258361197c565b91506120ca82612063565b604082019050919050565b600060208201905081810360008301526120ee816120b2565b9050919050565b7f696e646578203c2064625b6d73672e73656e6465725d2e6c656e677468000000600082015250565b600061212b601d8361197c565b9150612136826120f5565b602082019050919050565b6000602082019050818103600083015261215a8161211e565b9050919050565b7f626c6f636b2e74696d657374616d70203e3d206465706f7369742e776974686460008201527f72617754696d6500000000000000000000000000000000000000000000000000602082015250565b60006121bd60278361197c565b91506121c882612161565b604082019050919050565b600060208201905081810360008301526121ec816121b0565b9050919050565b7f6465706f7369742e616d6f756e74203e3d207769746864726177416d6f756e74600082015250565b600061222960208361197c565b9150612234826121f3565b602082019050919050565b600060208201905081810360008301526122588161221c565b9050919050565b7f616464726573732874686973292e62616c616e6365203e3d207769746864726160008201527f77416d6f756e7400000000000000000000000000000000000000000000000000602082015250565b60006122bb60278361197c565b91506122c68261225f565b604082019050919050565b600060208201905081810360008301526122ea816122ae565b9050919050565b7f4f776e61626c653a206e6577206f776e657220697320746865207a65726f206160008201527f6464726573730000000000000000000000000000000000000000000000000000602082015250565b600061234d60268361197c565b9150612358826122f1565b604082019050919050565b6000602082019050818103600083015261237c81612340565b9050919050565b7f45524332303a20617070726f76652066726f6d20746865207a65726f2061646460008201527f7265737300000000000000000000000000000000000000000000000000000000602082015250565b60006123df60248361197c565b91506123ea82612383565b604082019050919050565b6000602082019050818103600083015261240e816123d2565b9050919050565b7f45524332303a20617070726f766520746f20746865207a65726f20616464726560008201527f7373000000000000000000000000000000000000000000000000000000000000602082015250565b600061247160228361197c565b915061247c82612415565b604082019050919050565b600060208201905081810360008301526124a081612464565b9050919050565b7f45524332303a20696e73756666696369656e7420616c6c6f77616e6365000000600082015250565b60006124dd601d8361197c565b91506124e8826124a7565b602082019050919050565b6000602082019050818103600083015261250c816124d0565b9050919050565b7f45524332303a207472616e736665722066726f6d20746865207a65726f20616460008201527f6472657373000000000000000000000000000000000000000000000000000000602082015250565b600061256f60258361197c565b915061257a82612513565b604082019050919050565b6000602082019050818103600083015261259e81612562565b9050919050565b7f45524332303a207472616e7366657220746f20746865207a65726f206164647260008201527f6573730000000000000000000000000000000000000000000000000000000000602082015250565b600061260160238361197c565b915061260c826125a5565b604082019050919050565b60006020820190508181036000830152612630816125f4565b9050919050565b7f45524332303a207472616e7366657220616d6f756e742065786365656473206260008201527f616c616e63650000000000000000000000000000000000000000000000000000602082015250565b600061269360268361197c565b915061269e82612637565b604082019050919050565b600060208201905081810360008301526126c281612686565b9050919050565b7f4f776e61626c653a2063616c6c6572206973206e6f7420746865206f776e6572600082015250565b60006126ff60208361197c565b915061270a826126c9565b602082019050919050565b6000602082019050818103600083015261272e816126f2565b905091905056fea2646970667358221220abf4b8b303314db3575b1457647a94f90ad1edff5101b6fb3e5a668508dff4be64736f6c63430008130033",
  "linkReferences": {},
  "deployedLinkReferences": {}
}