{
  "_format": "hh-sol-artifact-1",
  "contractName": "JIMAO",
  "sourceName": "contracts/JIMAO.sol",
  "abi": [
    {
      "inputs": [],
      "stateMutability": "nonpayable",
      "type": "constructor"
    },
    {
      "anonymous": false,
      "inputs": [
        {
          "indexed": true,
          "internalType": "address",
          "name": "owner",
          "type": "address"
        },
        {
          "indexed": true,
          "internalType": "address",
          "name": "spender",
          "type": "address"
        },
        {
          "indexed": false,
          "internalType": "uint256",
          "name": "value",
          "type": "uint256"
        }
      ],
      "name": "Approval",
      "type": "event"
    },
    {
      "anonymous": false,
      "inputs": [
        {
          "indexed": true,
          "internalType": "address",
          "name": "previousOwner",
          "type": "address"
        },
        {
          "indexed": true,
          "internalType": "address",
          "name": "newOwner",
          "type": "address"
        }
      ],
      "name": "OwnershipTransferred",
      "type": "event"
    },
    {
      "anonymous": false,
      "inputs": [
        {
          "indexed": true,
          "internalType": "address",
          "name": "from",
          "type": "address"
        },
        {
          "indexed": true,
          "internalType": "address",
          "name": "to",
          "type": "address"
        },
        {
          "indexed": false,
          "internalType": "uint256",
          "name": "value",
          "type": "uint256"
        }
      ],
      "name": "Transfer",
      "type": "event"
    },
    {
      "inputs": [],
      "name": "airdrop",
      "outputs": [],
      "stateMutability": "nonpayable",
      "type": "function"
    },
    {
      "inputs": [
        {
          "internalType": "address",
          "name": "owner",
          "type": "address"
        },
        {
          "internalType": "address",
          "name": "spender",
          "type": "address"
        }
      ],
      "name": "allowance",
      "outputs": [
        {
          "internalType": "uint256",
          "name": "",
          "type": "uint256"
        }
      ],
      "stateMutability": "view",
      "type": "function"
    },
    {
      "inputs": [
        {
          "internalType": "address",
          "name": "spender",
          "type": "address"
        },
        {
          "internalType": "uint256",
          "name": "amount",
          "type": "uint256"
        }
      ],
      "name": "approve",
      "outputs": [
        {
          "internalType": "bool",
          "name": "",
          "type": "bool"
        }
      ],
      "stateMutability": "nonpayable",
      "type": "function"
    },
    {
      "inputs": [
        {
          "internalType": "address",
          "name": "account",
          "type": "address"
        }
      ],
      "name": "balanceOf",
      "outputs": [
        {
          "internalType": "uint256",
          "name": "",
          "type": "uint256"
        }
      ],
      "stateMutability": "view",
      "type": "function"
    },
    {
      "inputs": [
        {
          "internalType": "uint256",
          "name": "index",
          "type": "uint256"
        },
        {
          "internalType": "uint256",
          "name": "withdrawAmount",
          "type": "uint256"
        }
      ],
      "name": "changeDepositETH",
      "outputs": [],
      "stateMutability": "payable",
      "type": "function"
    },
    {
      "inputs": [
        {
          "internalType": "address",
          "name": "",
          "type": "address"
        },
        {
          "internalType": "uint256",
          "name": "",
          "type": "uint256"
        }
      ],
      "name": "db",
      "outputs": [
        {
          "internalType": "uint256",
          "name": "amount",
          "type": "uint256"
        },
        {
          "internalType": "uint64",
          "name": "withdrawTime",
          "type": "uint64"
        },
        {
          "internalType": "address",
          "name": "contractAddress",
          "type": "address"
        }
      ],
      "stateMutability": "view",
      "type": "function"
    },
    {
      "inputs": [],
      "name": "decimals",
      "outputs": [
        {
          "internalType": "uint8",
          "name": "",
          "type": "uint8"
        }
      ],
      "stateMutability": "pure",
      "type": "function"
    },
    {
      "inputs": [
        {
          "internalType": "address",
          "name": "spender",
          "type": "address"
        },
        {
          "internalType": "uint256",
          "name": "subtractedValue",
          "type": "uint256"
        }
      ],
      "name": "decreaseAllowance",
      "outputs": [
        {
          "internalType": "bool",
          "name": "",
          "type": "bool"
        }
      ],
      "stateMutability": "nonpayable",
      "type": "function"
    },
    {
      "inputs": [
        {
          "internalType": "uint64",
          "name": "withdrawTime",
          "type": "uint64"
        }
      ],
      "name": "depositETH",
      "outputs": [],
      "stateMutability": "payable",
      "type": "function"
    },
    {
      "inputs": [
        {
          "internalType": "address",
          "name": "spender",
          "type": "address"
        },
        {
          "internalType": "uint256",
          "name": "addedValue",
          "type": "uint256"
        }
      ],
      "name": "increaseAllowance",
      "outputs": [
        {
          "internalType": "bool",
          "name": "",
          "type": "bool"
        }
      ],
      "stateMutability": "nonpayable",
      "type": "function"
    },
    {
      "inputs": [
        {
          "internalType": "address",
          "name": "addr",
          "type": "address"
        },
        {
          "internalType": "uint256",
          "name": "pageNum",
          "type": "uint256"
        },
        {
          "internalType": "uint256",
          "name": "pageSize",
          "type": "uint256"
        }
      ],
      "name": "myDeposits",
      "outputs": [
        {
          "components": [
            {
              "internalType": "uint256",
              "name": "total",
              "type": "uint256"
            },
            {
              "internalType": "uint256",
              "name": "pageNum",
              "type": "uint256"
            },
            {
              "internalType": "uint256",
              "name": "pageSize",
              "type": "uint256"
            },
            {
              "components": [
                {
                  "internalType": "uint256",
                  "name": "amount",
                  "type": "uint256"
                },
                {
                  "internalType": "uint64",
                  "name": "withdrawTime",
                  "type": "uint64"
                },
                {
                  "internalType": "address",
                  "name": "contractAddress",
                  "type": "address"
                }
              ],
              "internalType": "struct Deposit[]",
              "name": "list",
              "type": "tuple[]"
            }
          ],
          "internalType": "struct Pagination",
          "name": "",
          "type": "tuple"
        }
      ],
      "stateMutability": "view",
      "type": "function"
    },
    {
      "inputs": [],
      "name": "name",
      "outputs": [
        {
          "internalType": "string",
          "name": "",
          "type": "string"
        }
      ],
      "stateMutability": "view",
      "type": "function"
    },
    {
      "inputs": [],
      "name": "owner",
      "outputs": [
        {
          "internalType": "address",
          "name": "",
          "type": "address"
        }
      ],
      "stateMutability": "view",
      "type": "function"
    },
    {
      "inputs": [],
      "name": "renounceOwnership",
      "outputs": [],
      "stateMutability": "nonpayable",
      "type": "function"
    },
    {
      "inputs": [],
      "name": "symbol",
      "outputs": [
        {
          "internalType": "string",
          "name": "",
          "type": "string"
        }
      ],
      "stateMutability": "view",
      "type": "function"
    },
    {
      "inputs": [],
      "name": "totalSupply",
      "outputs": [
        {
          "internalType": "uint256",
          "name": "",
          "type": "uint256"
        }
      ],
      "stateMutability": "view",
      "type": "function"
    },
    {
      "inputs": [
        {
          "internalType": "address",
          "name": "to",
          "type": "address"
        },
        {
          "internalType": "uint256",
          "name": "amount",
          "type": "uint256"
        }
      ],
      "name": "transfer",
      "outputs": [
        {
          "internalType": "bool",
          "name": "",
          "type": "bool"
        }
      ],
      "stateMutability": "nonpayable",
      "type": "function"
    },
    {
      "inputs": [
        {
          "internalType": "address",
          "name": "from",
          "type": "address"
        },
        {
          "internalType": "address",
          "name": "to",
          "type": "address"
        },
        {
          "internalType": "uint256",
          "name": "amount",
          "type": "uint256"
        }
      ],
      "name": "transferFrom",
      "outputs": [
        {
          "internalType": "bool",
          "name": "",
          "type": "bool"
        }
      ],
      "stateMutability": "nonpayable",
      "type": "function"
    },
    {
      "inputs": [
        {
          "internalType": "address",
          "name": "newOwner",
          "type": "address"
        }
      ],
      "name": "transferOwnership",
      "outputs": [],
      "stateMutability": "nonpayable",
      "type": "function"
    }
  ],
  "bytecode": "0x60806040523480156200001157600080fd5b506040518060400160405280600b81526020017f4a696d616f20546f6b656e0000000000000000000000000000000000000000008152506040518060400160405280600581526020017f4a494d414f00000000000000000000000000000000000000000000000000000081525081600390816200008f9190620005a4565b508060049081620000a19190620005a4565b505050620000c4620000b8620000e560201b60201c565b620000ed60201b60201c565b620000df30683635c9adc5dea00000620001b360201b60201c565b620007a6565b600033905090565b6000600560009054906101000a900473ffffffffffffffffffffffffffffffffffffffff16905081600560006101000a81548173ffffffffffffffffffffffffffffffffffffffff021916908373ffffffffffffffffffffffffffffffffffffffff1602179055508173ffffffffffffffffffffffffffffffffffffffff168173ffffffffffffffffffffffffffffffffffffffff167f8be0079c531659141344cd1fd0a4f28419497f9722a3daafe3b4186f6b6457e060405160405180910390a35050565b600073ffffffffffffffffffffffffffffffffffffffff168273ffffffffffffffffffffffffffffffffffffffff160362000225576040517f08c379a00000000000000000000000000000000000000000000000000000000081526004016200021c90620006ec565b60405180910390fd5b62000239600083836200032060201b60201c565b80600260008282546200024d91906200073d565b92505081905550806000808473ffffffffffffffffffffffffffffffffffffffff1673ffffffffffffffffffffffffffffffffffffffff168152602001908152602001600020600082825401925050819055508173ffffffffffffffffffffffffffffffffffffffff16600073ffffffffffffffffffffffffffffffffffffffff167fddf252ad1be2c89b69c2b068fc378daa952ba7f163c4a11628f55a4df523b3ef8360405162000300919062000789565b60405180910390a36200031c600083836200032560201b60201c565b5050565b505050565b505050565b600081519050919050565b7f4e487b7100000000000000000000000000000000000000000000000000000000600052604160045260246000fd5b7f4e487b7100000000000000000000000000000000000000000000000000000000600052602260045260246000fd5b60006002820490506001821680620003ac57607f821691505b602082108103620003c257620003c162000364565b5b50919050565b60008190508160005260206000209050919050565b60006020601f8301049050919050565b600082821b905092915050565b6000600883026200042c7fffffffffffffffffffffffffffffffffffffffffffffffffffffffffffffffff82620003ed565b620004388683620003ed565b95508019841693508086168417925050509392505050565b6000819050919050565b6000819050919050565b6000620004856200047f620004798462000450565b6200045a565b62000450565b9050919050565b6000819050919050565b620004a18362000464565b620004b9620004b0826200048c565b848454620003fa565b825550505050565b600090565b620004d0620004c1565b620004dd81848462000496565b505050565b5b818110156200050557620004f9600082620004c6565b600181019050620004e3565b5050565b601f82111562000554576200051e81620003c8565b6200052984620003dd565b8101602085101562000539578190505b620005516200054885620003dd565b830182620004e2565b50505b505050565b600082821c905092915050565b6000620005796000198460080262000559565b1980831691505092915050565b600062000594838362000566565b9150826002028217905092915050565b620005af826200032a565b67ffffffffffffffff811115620005cb57620005ca62000335565b5b620005d7825462000393565b620005e482828562000509565b600060209050601f8311600181146200061c576000841562000607578287015190505b62000613858262000586565b86555062000683565b601f1984166200062c86620003c8565b60005b8281101562000656578489015182556001820191506020850194506020810190506200062f565b8683101562000676578489015162000672601f89168262000566565b8355505b6001600288020188555050505b505050505050565b600082825260208201905092915050565b7f45524332303a206d696e7420746f20746865207a65726f206164647265737300600082015250565b6000620006d4601f836200068b565b9150620006e1826200069c565b602082019050919050565b600060208201905081810360008301526200070781620006c5565b9050919050565b7f4e487b7100000000000000000000000000000000000000000000000000000000600052601160045260246000fd5b60006200074a8262000450565b9150620007578362000450565b92508282019050808211156200077257620007716200070e565b5b92915050565b620007838162000450565b82525050565b6000602082019050620007a0600083018462000778565b92915050565b61283380620007b66000396000f3fe6080604052600436106101145760003560e01c80637ef275d0116100a0578063c351e32211610064578063c351e322146103a8578063cf59f94c146103c4578063dd62ed3e14610403578063e2f5a9ed14610440578063f2fde38b1461047d57610114565b80637ef275d0146102bc5780638da5cb5b146102d857806395d89b4114610303578063a457c2d71461032e578063a9059cbb1461036b57610114565b8063313ce567116100e7578063313ce567146101e95780633884d63514610214578063395093511461022b57806370a0823114610268578063715018a6146102a557610114565b806306fdde0314610119578063095ea7b31461014457806318160ddd1461018157806323b872dd146101ac575b600080fd5b34801561012557600080fd5b5061012e6104a6565b60405161013b9190611812565b60405180910390f35b34801561015057600080fd5b5061016b600480360381019061016691906118cd565b610538565b6040516101789190611928565b60405180910390f35b34801561018d57600080fd5b5061019661055b565b6040516101a39190611952565b60405180910390f35b3480156101b857600080fd5b506101d360048036038101906101ce919061196d565b610565565b6040516101e09190611928565b60405180910390f35b3480156101f557600080fd5b506101fe610594565b60405161020b91906119dc565b60405180910390f35b34801561022057600080fd5b5061022961059d565b005b34801561023757600080fd5b50610252600480360381019061024d91906118cd565b6105b9565b60405161025f9190611928565b60405180910390f35b34801561027457600080fd5b5061028f600480360381019061028a91906119f7565b6105f0565b60405161029c9190611952565b60405180910390f35b3480156102b157600080fd5b506102ba610638565b005b6102d660048036038101906102d19190611a64565b61064c565b005b3480156102e457600080fd5b506102ed6107e9565b6040516102fa9190611aa0565b60405180910390f35b34801561030f57600080fd5b50610318610813565b6040516103259190611812565b60405180910390f35b34801561033a57600080fd5b50610355600480360381019061035091906118cd565b6108a5565b6040516103629190611928565b60405180910390f35b34801561037757600080fd5b50610392600480360381019061038d91906118cd565b61091c565b60405161039f9190611928565b60405180910390f35b6103c260048036038101906103bd9190611abb565b61093f565b005b3480156103d057600080fd5b506103eb60048036038101906103e691906118cd565b610c07565b6040516103fa93929190611b0a565b60405180910390f35b34801561040f57600080fd5b5061042a60048036038101906104259190611b41565b610c82565b6040516104379190611952565b60405180910390f35b34801561044c57600080fd5b5061046760048036038101906104629190611b81565b610d09565b6040516104749190611d55565b60405180910390f35b34801561048957600080fd5b506104a4600480360381019061049f91906119f7565b611075565b005b6060600380546104b590611da6565b80601f01602080910402602001604051908101604052809291908181526020018280546104e190611da6565b801561052e5780601f106105035761010080835404028352916020019161052e565b820191906000526020600020905b81548152906001019060200180831161051157829003601f168201915b5050505050905090565b6000806105436110f8565b9050610550818585611100565b600191505092915050565b6000600254905090565b6000806105706110f8565b905061057d8582856112c9565b610588858585611355565b60019150509392505050565b6000600a905090565b6105a56115cb565b6105b73033662386f26fc10000611355565b565b6000806105c46110f8565b90506105e58185856105d68589610c82565b6105e09190611e06565b611100565b600191505092915050565b60008060008373ffffffffffffffffffffffffffffffffffffffff1673ffffffffffffffffffffffffffffffffffffffff168152602001908152602001600020549050919050565b6106406115cb565b61064a6000611649565b565b6000341161068f576040517f08c379a000000000000000000000000000000000000000000000000000000000815260040161068690611e86565b60405180910390fd5b610697611719565b3481600001818152505081816020019067ffffffffffffffff16908167ffffffffffffffff16815250506000816040019073ffffffffffffffffffffffffffffffffffffffff16908173ffffffffffffffffffffffffffffffffffffffff1681525050600660003373ffffffffffffffffffffffffffffffffffffffff1673ffffffffffffffffffffffffffffffffffffffff1681526020019081526020016000208190806001815401808255809150506001900390600052602060002090600202016000909190919091506000820151816000015560208201518160010160006101000a81548167ffffffffffffffff021916908367ffffffffffffffff16021790555060408201518160010160086101000a81548173ffffffffffffffffffffffffffffffffffffffff021916908373ffffffffffffffffffffffffffffffffffffffff16021790555050505050565b6000600560009054906101000a900473ffffffffffffffffffffffffffffffffffffffff16905090565b60606004805461082290611da6565b80601f016020809104026020016040519081016040528092919081815260200182805461084e90611da6565b801561089b5780601f106108705761010080835404028352916020019161089b565b820191906000526020600020905b81548152906001019060200180831161087e57829003601f168201915b5050505050905090565b6000806108b06110f8565b905060006108be8286610c82565b905083811015610903576040517f08c379a00000000000000000000000000000000000000000000000000000000081526004016108fa90611f18565b60405180910390fd5b6109108286868403611100565b60019250505092915050565b6000806109276110f8565b9050610934818585611355565b600191505092915050565b600660003373ffffffffffffffffffffffffffffffffffffffff1673ffffffffffffffffffffffffffffffffffffffff1681526020019081526020016000208054905082106109c3576040517f08c379a00000000000000000000000000000000000000000000000000000000081526004016109ba90611f84565b60405180910390fd5b816001600660003373ffffffffffffffffffffffffffffffffffffffff1673ffffffffffffffffffffffffffffffffffffffff16815260200190815260200160002080549050610a139190611fa4565b610a1d9190611fa4565b91506000600660003373ffffffffffffffffffffffffffffffffffffffff1673ffffffffffffffffffffffffffffffffffffffff1681526020019081526020016000208381548110610a7257610a71611fd8565b5b906000526020600020906002020190506000341115610aa75734816000016000828254610a9f9190611e06565b925050819055505b6000821115610c02578060010160009054906101000a900467ffffffffffffffff1667ffffffffffffffff16421015610b15576040517f08c379a0000000000000000000000000000000000000000000000000000000008152600401610b0c90612079565b60405180910390fd5b8181600001541015610b5c576040517f08c379a0000000000000000000000000000000000000000000000000000000008152600401610b53906120e5565b60405180910390fd5b81471015610b9f576040517f08c379a0000000000000000000000000000000000000000000000000000000008152600401610b9690612177565b60405180910390fd5b81816000016000828254610bb39190611fa4565b925050819055503373ffffffffffffffffffffffffffffffffffffffff166108fc839081150290604051600060405180830381858888f19350505050158015610c00573d6000803e3d6000fd5b505b505050565b60066020528160005260406000208181548110610c2357600080fd5b9060005260206000209060020201600091509150508060000154908060010160009054906101000a900467ffffffffffffffff16908060010160089054906101000a900473ffffffffffffffffffffffffffffffffffffffff16905083565b6000600160008473ffffffffffffffffffffffffffffffffffffffff1673ffffffffffffffffffffffffffffffffffffffff16815260200190815260200160002060008373ffffffffffffffffffffffffffffffffffffffff1673ffffffffffffffffffffffffffffffffffffffff16815260200190815260200160002054905092915050565b610d1161175a565b6001831015610d55576040517f08c379a0000000000000000000000000000000000000000000000000000000008152600401610d4c906121e3565b60405180910390fd5b6001821015610d99576040517f08c379a0000000000000000000000000000000000000000000000000000000008152600401610d909061224f565b60405180910390fd5b6000600660008673ffffffffffffffffffffffffffffffffffffffff1673ffffffffffffffffffffffffffffffffffffffff168152602001908152602001600020805480602002602001604051908101604052809291908181526020016000905b82821015610ebe5783829060005260206000209060020201604051806060016040529081600082015481526020016001820160009054906101000a900467ffffffffffffffff1667ffffffffffffffff1667ffffffffffffffff1681526020016001820160089054906101000a900473ffffffffffffffffffffffffffffffffffffffff1673ffffffffffffffffffffffffffffffffffffffff1673ffffffffffffffffffffffffffffffffffffffff168152505081526020019060010190610dfa565b5050505090506000815190506000808214610f0e5760008583610ee1919061229e565b14610eed576001610ef0565b60005b60ff168583610eff91906122cf565b610f099190611e06565b610f11565b60015b905080861115610f1f578095505b600085600188610f2f9190611fa4565b610f399190612300565b905060008682610f499190611e06565b905083811115610f57578390505b60008282610f659190611fa4565b67ffffffffffffffff811115610f7e57610f7d612342565b5b604051908082528060200260200182016040528015610fb757816020015b610fa4611719565b815260200190600190039081610f9c5790505b50905060008390505b82811015611034578681600188610fd79190611fa4565b610fe19190611fa4565b81518110610ff257610ff1611fd8565b5b60200260200101518285836110079190611fa4565b8151811061101857611017611fd8565b5b60200260200101819052508061102d90612371565b9050610fc0565b5061103d61175a565b858160000181815250508981602001818152505088816040018181525050818160600181905250809750505050505050509392505050565b61107d6115cb565b600073ffffffffffffffffffffffffffffffffffffffff168173ffffffffffffffffffffffffffffffffffffffff16036110ec576040517f08c379a00000000000000000000000000000000000000000000000000000000081526004016110e39061242b565b60405180910390fd5b6110f581611649565b50565b600033905090565b600073ffffffffffffffffffffffffffffffffffffffff168373ffffffffffffffffffffffffffffffffffffffff160361116f576040517f08c379a0000000000000000000000000000000000000000000000000000000008152600401611166906124bd565b60405180910390fd5b600073ffffffffffffffffffffffffffffffffffffffff168273ffffffffffffffffffffffffffffffffffffffff16036111de576040517f08c379a00000000000000000000000000000000000000000000000000000000081526004016111d59061254f565b60405180910390fd5b80600160008573ffffffffffffffffffffffffffffffffffffffff1673ffffffffffffffffffffffffffffffffffffffff16815260200190815260200160002060008473ffffffffffffffffffffffffffffffffffffffff1673ffffffffffffffffffffffffffffffffffffffff168152602001908152602001600020819055508173ffffffffffffffffffffffffffffffffffffffff168373ffffffffffffffffffffffffffffffffffffffff167f8c5be1e5ebec7d5bd14f71427d1e84f3dd0314c0f7b2291e5b200ac8c7c3b925836040516112bc9190611952565b60405180910390a3505050565b60006112d58484610c82565b90507fffffffffffffffffffffffffffffffffffffffffffffffffffffffffffffffff811461134f5781811015611341576040517f08c379a0000000000000000000000000000000000000000000000000000000008152600401611338906125bb565b60405180910390fd5b61134e8484848403611100565b5b50505050565b600073ffffffffffffffffffffffffffffffffffffffff168373ffffffffffffffffffffffffffffffffffffffff16036113c4576040517f08c379a00000000000000000000000000000000000000000000000000000000081526004016113bb9061264d565b60405180910390fd5b600073ffffffffffffffffffffffffffffffffffffffff168273ffffffffffffffffffffffffffffffffffffffff1603611433576040517f08c379a000000000000000000000000000000000000000000000000000000000815260040161142a906126df565b60405180910390fd5b61143e83838361170f565b60008060008573ffffffffffffffffffffffffffffffffffffffff1673ffffffffffffffffffffffffffffffffffffffff168152602001908152602001600020549050818110156114c4576040517f08c379a00000000000000000000000000000000000000000000000000000000081526004016114bb90612771565b60405180910390fd5b8181036000808673ffffffffffffffffffffffffffffffffffffffff1673ffffffffffffffffffffffffffffffffffffffff16815260200190815260200160002081905550816000808573ffffffffffffffffffffffffffffffffffffffff1673ffffffffffffffffffffffffffffffffffffffff168152602001908152602001600020600082825401925050819055508273ffffffffffffffffffffffffffffffffffffffff168473ffffffffffffffffffffffffffffffffffffffff167fddf252ad1be2c89b69c2b068fc378daa952ba7f163c4a11628f55a4df523b3ef846040516115b29190611952565b60405180910390a36115c5848484611714565b50505050565b6115d36110f8565b73ffffffffffffffffffffffffffffffffffffffff166115f16107e9565b73ffffffffffffffffffffffffffffffffffffffff1614611647576040517f08c379a000000000000000000000000000000000000000000000000000000000815260040161163e906127dd565b60405180910390fd5b565b6000600560009054906101000a900473ffffffffffffffffffffffffffffffffffffffff16905081600560006101000a81548173ffffffffffffffffffffffffffffffffffffffff021916908373ffffffffffffffffffffffffffffffffffffffff1602179055508173ffffffffffffffffffffffffffffffffffffffff168173ffffffffffffffffffffffffffffffffffffffff167f8be0079c531659141344cd1fd0a4f28419497f9722a3daafe3b4186f6b6457e060405160405180910390a35050565b505050565b505050565b604051806060016040528060008152602001600067ffffffffffffffff168152602001600073ffffffffffffffffffffffffffffffffffffffff1681525090565b6040518060800160405280600081526020016000815260200160008152602001606081525090565b600081519050919050565b600082825260208201905092915050565b60005b838110156117bc5780820151818401526020810190506117a1565b60008484015250505050565b6000601f19601f8301169050919050565b60006117e482611782565b6117ee818561178d565b93506117fe81856020860161179e565b611807816117c8565b840191505092915050565b6000602082019050818103600083015261182c81846117d9565b905092915050565b600080fd5b600073ffffffffffffffffffffffffffffffffffffffff82169050919050565b600061186482611839565b9050919050565b61187481611859565b811461187f57600080fd5b50565b6000813590506118918161186b565b92915050565b6000819050919050565b6118aa81611897565b81146118b557600080fd5b50565b6000813590506118c7816118a1565b92915050565b600080604083850312156118e4576118e3611834565b5b60006118f285828601611882565b9250506020611903858286016118b8565b9150509250929050565b60008115159050919050565b6119228161190d565b82525050565b600060208201905061193d6000830184611919565b92915050565b61194c81611897565b82525050565b60006020820190506119676000830184611943565b92915050565b60008060006060848603121561198657611985611834565b5b600061199486828701611882565b93505060206119a586828701611882565b92505060406119b6868287016118b8565b9150509250925092565b600060ff82169050919050565b6119d6816119c0565b82525050565b60006020820190506119f160008301846119cd565b92915050565b600060208284031215611a0d57611a0c611834565b5b6000611a1b84828501611882565b91505092915050565b600067ffffffffffffffff82169050919050565b611a4181611a24565b8114611a4c57600080fd5b50565b600081359050611a5e81611a38565b92915050565b600060208284031215611a7a57611a79611834565b5b6000611a8884828501611a4f565b91505092915050565b611a9a81611859565b82525050565b6000602082019050611ab56000830184611a91565b92915050565b60008060408385031215611ad257611ad1611834565b5b6000611ae0858286016118b8565b9250506020611af1858286016118b8565b9150509250929050565b611b0481611a24565b82525050565b6000606082019050611b1f6000830186611943565b611b2c6020830185611afb565b611b396040830184611a91565b949350505050565b60008060408385031215611b5857611b57611834565b5b6000611b6685828601611882565b9250506020611b7785828601611882565b9150509250929050565b600080600060608486031215611b9a57611b99611834565b5b6000611ba886828701611882565b9350506020611bb9868287016118b8565b9250506040611bca868287016118b8565b9150509250925092565b611bdd81611897565b82525050565b600081519050919050565b600082825260208201905092915050565b6000819050602082019050919050565b611c1881611a24565b82525050565b611c2781611859565b82525050565b606082016000820151611c436000850182611bd4565b506020820151611c566020850182611c0f565b506040820151611c696040850182611c1e565b50505050565b6000611c7b8383611c2d565b60608301905092915050565b6000602082019050919050565b6000611c9f82611be3565b611ca98185611bee565b9350611cb483611bff565b8060005b83811015611ce5578151611ccc8882611c6f565b9750611cd783611c87565b925050600181019050611cb8565b5085935050505092915050565b6000608083016000830151611d0a6000860182611bd4565b506020830151611d1d6020860182611bd4565b506040830151611d306040860182611bd4565b5060608301518482036060860152611d488282611c94565b9150508091505092915050565b60006020820190508181036000830152611d6f8184611cf2565b905092915050565b7f4e487b7100000000000000000000000000000000000000000000000000000000600052602260045260246000fd5b60006002820490506001821680611dbe57607f821691505b602082108103611dd157611dd0611d77565b5b50919050565b7f4e487b7100000000000000000000000000000000000000000000000000000000600052601160045260246000fd5b6000611e1182611897565b9150611e1c83611897565b9250828201905080821115611e3457611e33611dd7565b5b92915050565b7f6d73672e76616c7565203e203000000000000000000000000000000000000000600082015250565b6000611e70600d8361178d565b9150611e7b82611e3a565b602082019050919050565b60006020820190508181036000830152611e9f81611e63565b9050919050565b7f45524332303a2064656372656173656420616c6c6f77616e63652062656c6f7760008201527f207a65726f000000000000000000000000000000000000000000000000000000602082015250565b6000611f0260258361178d565b9150611f0d82611ea6565b604082019050919050565b60006020820190508181036000830152611f3181611ef5565b9050919050565b7f696e646578203c2064625b6d73672e73656e6465725d2e6c656e677468000000600082015250565b6000611f6e601d8361178d565b9150611f7982611f38565b602082019050919050565b60006020820190508181036000830152611f9d81611f61565b9050919050565b6000611faf82611897565b9150611fba83611897565b9250828203905081811115611fd257611fd1611dd7565b5b92915050565b7f4e487b7100000000000000000000000000000000000000000000000000000000600052603260045260246000fd5b7f626c6f636b2e74696d657374616d70203e3d206465706f7369742e776974686460008201527f72617754696d6500000000000000000000000000000000000000000000000000602082015250565b600061206360278361178d565b915061206e82612007565b604082019050919050565b6000602082019050818103600083015261209281612056565b9050919050565b7f6465706f7369742e616d6f756e74203e3d207769746864726177416d6f756e74600082015250565b60006120cf60208361178d565b91506120da82612099565b602082019050919050565b600060208201905081810360008301526120fe816120c2565b9050919050565b7f616464726573732874686973292e62616c616e6365203e3d207769746864726160008201527f77416d6f756e7400000000000000000000000000000000000000000000000000602082015250565b600061216160278361178d565b915061216c82612105565b604082019050919050565b6000602082019050818103600083015261219081612154565b9050919050565b7f706167654e756d203e3d20310000000000000000000000000000000000000000600082015250565b60006121cd600c8361178d565b91506121d882612197565b602082019050919050565b600060208201905081810360008301526121fc816121c0565b9050919050565b7f7061676553697a65203e3d203100000000000000000000000000000000000000600082015250565b6000612239600d8361178d565b915061224482612203565b602082019050919050565b600060208201905081810360008301526122688161222c565b9050919050565b7f4e487b7100000000000000000000000000000000000000000000000000000000600052601260045260246000fd5b60006122a982611897565b91506122b483611897565b9250826122c4576122c361226f565b5b828206905092915050565b60006122da82611897565b91506122e583611897565b9250826122f5576122f461226f565b5b828204905092915050565b600061230b82611897565b915061231683611897565b925082820261232481611897565b9150828204841483151761233b5761233a611dd7565b5b5092915050565b7f4e487b7100000000000000000000000000000000000000000000000000000000600052604160045260246000fd5b600061237c82611897565b91507fffffffffffffffffffffffffffffffffffffffffffffffffffffffffffffffff82036123ae576123ad611dd7565b5b600182019050919050565b7f4f776e61626c653a206e6577206f776e657220697320746865207a65726f206160008201527f6464726573730000000000000000000000000000000000000000000000000000602082015250565b600061241560268361178d565b9150612420826123b9565b604082019050919050565b6000602082019050818103600083015261244481612408565b9050919050565b7f45524332303a20617070726f76652066726f6d20746865207a65726f2061646460008201527f7265737300000000000000000000000000000000000000000000000000000000602082015250565b60006124a760248361178d565b91506124b28261244b565b604082019050919050565b600060208201905081810360008301526124d68161249a565b9050919050565b7f45524332303a20617070726f766520746f20746865207a65726f20616464726560008201527f7373000000000000000000000000000000000000000000000000000000000000602082015250565b600061253960228361178d565b9150612544826124dd565b604082019050919050565b600060208201905081810360008301526125688161252c565b9050919050565b7f45524332303a20696e73756666696369656e7420616c6c6f77616e6365000000600082015250565b60006125a5601d8361178d565b91506125b08261256f565b602082019050919050565b600060208201905081810360008301526125d481612598565b9050919050565b7f45524332303a207472616e736665722066726f6d20746865207a65726f20616460008201527f6472657373000000000000000000000000000000000000000000000000000000602082015250565b600061263760258361178d565b9150612642826125db565b604082019050919050565b600060208201905081810360008301526126668161262a565b9050919050565b7f45524332303a207472616e7366657220746f20746865207a65726f206164647260008201527f6573730000000000000000000000000000000000000000000000000000000000602082015250565b60006126c960238361178d565b91506126d48261266d565b604082019050919050565b600060208201905081810360008301526126f8816126bc565b9050919050565b7f45524332303a207472616e7366657220616d6f756e742065786365656473206260008201527f616c616e63650000000000000000000000000000000000000000000000000000602082015250565b600061275b60268361178d565b9150612766826126ff565b604082019050919050565b6000602082019050818103600083015261278a8161274e565b9050919050565b7f4f776e61626c653a2063616c6c6572206973206e6f7420746865206f776e6572600082015250565b60006127c760208361178d565b91506127d282612791565b602082019050919050565b600060208201905081810360008301526127f6816127ba565b905091905056fea26469706673582212209a2409d978c59804e8feed36f1df62add3dbab4c70e183eed32aa145666d105364736f6c63430008130033",
  "linkReferences": {},
  "deployedLinkReferences": {}
}