{
  "_format": "hh-sol-artifact-1",
  "contractName": "JIMAO",
  "sourceName": "contracts/JIMAO.sol",
  "abi": [
    {
      "inputs": [],
      "stateMutability": "nonpayable",
      "type": "constructor"
    },
    {
      "anonymous": false,
      "inputs": [
        {
          "indexed": true,
          "internalType": "address",
          "name": "owner",
          "type": "address"
        },
        {
          "indexed": true,
          "internalType": "address",
          "name": "spender",
          "type": "address"
        },
        {
          "indexed": false,
          "internalType": "uint256",
          "name": "value",
          "type": "uint256"
        }
      ],
      "name": "Approval",
      "type": "event"
    },
    {
      "anonymous": false,
      "inputs": [
        {
          "indexed": true,
          "internalType": "address",
          "name": "previousOwner",
          "type": "address"
        },
        {
          "indexed": true,
          "internalType": "address",
          "name": "newOwner",
          "type": "address"
        }
      ],
      "name": "OwnershipTransferred",
      "type": "event"
    },
    {
      "anonymous": false,
      "inputs": [
        {
          "indexed": true,
          "internalType": "address",
          "name": "from",
          "type": "address"
        },
        {
          "indexed": true,
          "internalType": "address",
          "name": "to",
          "type": "address"
        },
        {
          "indexed": false,
          "internalType": "uint256",
          "name": "value",
          "type": "uint256"
        }
      ],
      "name": "Transfer",
      "type": "event"
    },
    {
      "inputs": [],
      "name": "airdrop",
      "outputs": [],
      "stateMutability": "nonpayable",
      "type": "function"
    },
    {
      "inputs": [
        {
          "internalType": "address",
          "name": "owner",
          "type": "address"
        },
        {
          "internalType": "address",
          "name": "spender",
          "type": "address"
        }
      ],
      "name": "allowance",
      "outputs": [
        {
          "internalType": "uint256",
          "name": "",
          "type": "uint256"
        }
      ],
      "stateMutability": "view",
      "type": "function"
    },
    {
      "inputs": [
        {
          "internalType": "address",
          "name": "spender",
          "type": "address"
        },
        {
          "internalType": "uint256",
          "name": "amount",
          "type": "uint256"
        }
      ],
      "name": "approve",
      "outputs": [
        {
          "internalType": "bool",
          "name": "",
          "type": "bool"
        }
      ],
      "stateMutability": "nonpayable",
      "type": "function"
    },
    {
      "inputs": [
        {
          "internalType": "address",
          "name": "account",
          "type": "address"
        }
      ],
      "name": "balanceOf",
      "outputs": [
        {
          "internalType": "uint256",
          "name": "",
          "type": "uint256"
        }
      ],
      "stateMutability": "view",
      "type": "function"
    },
    {
      "inputs": [
        {
          "internalType": "uint256",
          "name": "index",
          "type": "uint256"
        },
        {
          "internalType": "uint256",
          "name": "withdrawAmount",
          "type": "uint256"
        }
      ],
      "name": "changeDepositETH",
      "outputs": [],
      "stateMutability": "payable",
      "type": "function"
    },
    {
      "inputs": [
        {
          "internalType": "address",
          "name": "",
          "type": "address"
        },
        {
          "internalType": "uint256",
          "name": "",
          "type": "uint256"
        }
      ],
      "name": "db",
      "outputs": [
        {
          "internalType": "uint256",
          "name": "amount",
          "type": "uint256"
        },
        {
          "internalType": "uint64",
          "name": "withdrawTime",
          "type": "uint64"
        },
        {
          "internalType": "address",
          "name": "contractAddress",
          "type": "address"
        }
      ],
      "stateMutability": "view",
      "type": "function"
    },
    {
      "inputs": [],
      "name": "decimals",
      "outputs": [
        {
          "internalType": "uint8",
          "name": "",
          "type": "uint8"
        }
      ],
      "stateMutability": "pure",
      "type": "function"
    },
    {
      "inputs": [
        {
          "internalType": "address",
          "name": "spender",
          "type": "address"
        },
        {
          "internalType": "uint256",
          "name": "subtractedValue",
          "type": "uint256"
        }
      ],
      "name": "decreaseAllowance",
      "outputs": [
        {
          "internalType": "bool",
          "name": "",
          "type": "bool"
        }
      ],
      "stateMutability": "nonpayable",
      "type": "function"
    },
    {
      "inputs": [
        {
          "internalType": "uint64",
          "name": "withdrawTime",
          "type": "uint64"
        }
      ],
      "name": "depositETH",
      "outputs": [],
      "stateMutability": "payable",
      "type": "function"
    },
    {
      "inputs": [
        {
          "internalType": "address",
          "name": "spender",
          "type": "address"
        },
        {
          "internalType": "uint256",
          "name": "addedValue",
          "type": "uint256"
        }
      ],
      "name": "increaseAllowance",
      "outputs": [
        {
          "internalType": "bool",
          "name": "",
          "type": "bool"
        }
      ],
      "stateMutability": "nonpayable",
      "type": "function"
    },
    {
      "inputs": [],
      "name": "myAddress",
      "outputs": [
        {
          "internalType": "address",
          "name": "",
          "type": "address"
        }
      ],
      "stateMutability": "view",
      "type": "function"
    },
    {
      "inputs": [
        {
          "internalType": "address",
          "name": "addr",
          "type": "address"
        },
        {
          "internalType": "uint256",
          "name": "pageNum",
          "type": "uint256"
        },
        {
          "internalType": "uint256",
          "name": "pageSize",
          "type": "uint256"
        }
      ],
      "name": "myDeposits",
      "outputs": [
        {
          "components": [
            {
              "internalType": "uint256",
              "name": "total",
              "type": "uint256"
            },
            {
              "internalType": "uint256",
              "name": "pageNum",
              "type": "uint256"
            },
            {
              "internalType": "uint256",
              "name": "pageSize",
              "type": "uint256"
            },
            {
              "components": [
                {
                  "internalType": "uint256",
                  "name": "amount",
                  "type": "uint256"
                },
                {
                  "internalType": "uint64",
                  "name": "withdrawTime",
                  "type": "uint64"
                },
                {
                  "internalType": "address",
                  "name": "contractAddress",
                  "type": "address"
                }
              ],
              "internalType": "struct Deposit[]",
              "name": "list",
              "type": "tuple[]"
            }
          ],
          "internalType": "struct Pagination",
          "name": "",
          "type": "tuple"
        }
      ],
      "stateMutability": "view",
      "type": "function"
    },
    {
      "inputs": [],
      "name": "name",
      "outputs": [
        {
          "internalType": "string",
          "name": "",
          "type": "string"
        }
      ],
      "stateMutability": "view",
      "type": "function"
    },
    {
      "inputs": [],
      "name": "owner",
      "outputs": [
        {
          "internalType": "address",
          "name": "",
          "type": "address"
        }
      ],
      "stateMutability": "view",
      "type": "function"
    },
    {
      "inputs": [],
      "name": "renounceOwnership",
      "outputs": [],
      "stateMutability": "nonpayable",
      "type": "function"
    },
    {
      "inputs": [],
      "name": "symbol",
      "outputs": [
        {
          "internalType": "string",
          "name": "",
          "type": "string"
        }
      ],
      "stateMutability": "view",
      "type": "function"
    },
    {
      "inputs": [],
      "name": "totalSupply",
      "outputs": [
        {
          "internalType": "uint256",
          "name": "",
          "type": "uint256"
        }
      ],
      "stateMutability": "view",
      "type": "function"
    },
    {
      "inputs": [
        {
          "internalType": "address",
          "name": "to",
          "type": "address"
        },
        {
          "internalType": "uint256",
          "name": "amount",
          "type": "uint256"
        }
      ],
      "name": "transfer",
      "outputs": [
        {
          "internalType": "bool",
          "name": "",
          "type": "bool"
        }
      ],
      "stateMutability": "nonpayable",
      "type": "function"
    },
    {
      "inputs": [
        {
          "internalType": "address",
          "name": "from",
          "type": "address"
        },
        {
          "internalType": "address",
          "name": "to",
          "type": "address"
        },
        {
          "internalType": "uint256",
          "name": "amount",
          "type": "uint256"
        }
      ],
      "name": "transferFrom",
      "outputs": [
        {
          "internalType": "bool",
          "name": "",
          "type": "bool"
        }
      ],
      "stateMutability": "nonpayable",
      "type": "function"
    },
    {
      "inputs": [
        {
          "internalType": "address",
          "name": "newOwner",
          "type": "address"
        }
      ],
      "name": "transferOwnership",
      "outputs": [],
      "stateMutability": "nonpayable",
      "type": "function"
    }
  ],
  "bytecode": "0x60806040523480156200001157600080fd5b506040518060400160405280600b81526020017f4a696d616f20546f6b656e0000000000000000000000000000000000000000008152506040518060400160405280600581526020017f4a494d414f00000000000000000000000000000000000000000000000000000081525081600390816200008f9190620005a4565b508060049081620000a19190620005a4565b505050620000c4620000b8620000e560201b60201c565b620000ed60201b60201c565b620000df30683635c9adc5dea00000620001b360201b60201c565b620007a6565b600033905090565b6000600560009054906101000a900473ffffffffffffffffffffffffffffffffffffffff16905081600560006101000a81548173ffffffffffffffffffffffffffffffffffffffff021916908373ffffffffffffffffffffffffffffffffffffffff1602179055508173ffffffffffffffffffffffffffffffffffffffff168173ffffffffffffffffffffffffffffffffffffffff167f8be0079c531659141344cd1fd0a4f28419497f9722a3daafe3b4186f6b6457e060405160405180910390a35050565b600073ffffffffffffffffffffffffffffffffffffffff168273ffffffffffffffffffffffffffffffffffffffff160362000225576040517f08c379a00000000000000000000000000000000000000000000000000000000081526004016200021c90620006ec565b60405180910390fd5b62000239600083836200032060201b60201c565b80600260008282546200024d91906200073d565b92505081905550806000808473ffffffffffffffffffffffffffffffffffffffff1673ffffffffffffffffffffffffffffffffffffffff168152602001908152602001600020600082825401925050819055508173ffffffffffffffffffffffffffffffffffffffff16600073ffffffffffffffffffffffffffffffffffffffff167fddf252ad1be2c89b69c2b068fc378daa952ba7f163c4a11628f55a4df523b3ef8360405162000300919062000789565b60405180910390a36200031c600083836200032560201b60201c565b5050565b505050565b505050565b600081519050919050565b7f4e487b7100000000000000000000000000000000000000000000000000000000600052604160045260246000fd5b7f4e487b7100000000000000000000000000000000000000000000000000000000600052602260045260246000fd5b60006002820490506001821680620003ac57607f821691505b602082108103620003c257620003c162000364565b5b50919050565b60008190508160005260206000209050919050565b60006020601f8301049050919050565b600082821b905092915050565b6000600883026200042c7fffffffffffffffffffffffffffffffffffffffffffffffffffffffffffffffff82620003ed565b620004388683620003ed565b95508019841693508086168417925050509392505050565b6000819050919050565b6000819050919050565b6000620004856200047f620004798462000450565b6200045a565b62000450565b9050919050565b6000819050919050565b620004a18362000464565b620004b9620004b0826200048c565b848454620003fa565b825550505050565b600090565b620004d0620004c1565b620004dd81848462000496565b505050565b5b818110156200050557620004f9600082620004c6565b600181019050620004e3565b5050565b601f82111562000554576200051e81620003c8565b6200052984620003dd565b8101602085101562000539578190505b620005516200054885620003dd565b830182620004e2565b50505b505050565b600082821c905092915050565b6000620005796000198460080262000559565b1980831691505092915050565b600062000594838362000566565b9150826002028217905092915050565b620005af826200032a565b67ffffffffffffffff811115620005cb57620005ca62000335565b5b620005d7825462000393565b620005e482828562000509565b600060209050601f8311600181146200061c576000841562000607578287015190505b62000613858262000586565b86555062000683565b601f1984166200062c86620003c8565b60005b8281101562000656578489015182556001820191506020850194506020810190506200062f565b8683101562000676578489015162000672601f89168262000566565b8355505b6001600288020188555050505b505050505050565b600082825260208201905092915050565b7f45524332303a206d696e7420746f20746865207a65726f206164647265737300600082015250565b6000620006d4601f836200068b565b9150620006e1826200069c565b602082019050919050565b600060208201905081810360008301526200070781620006c5565b9050919050565b7f4e487b7100000000000000000000000000000000000000000000000000000000600052601160045260246000fd5b60006200074a8262000450565b9150620007578362000450565b92508282019050808211156200077257620007716200070e565b5b92915050565b620007838162000450565b82525050565b6000602082019050620007a0600083018462000778565b92915050565b6127fe80620007b66000396000f3fe60806040526004361061011f5760003560e01c80637ef275d0116100a0578063c351e32211610064578063c351e322146103de578063cf59f94c146103fa578063dd62ed3e14610439578063e2f5a9ed14610476578063f2fde38b146104b35761011f565b80637ef275d0146102f25780638da5cb5b1461030e57806395d89b4114610339578063a457c2d714610364578063a9059cbb146103a15761011f565b8063313ce567116100e7578063313ce5671461021f5780633884d6351461024a578063395093511461026157806370a082311461029e578063715018a6146102db5761011f565b806306fdde0314610124578063095ea7b31461014f57806318160ddd1461018c57806323b872dd146101b757806326b85ee1146101f4575b600080fd5b34801561013057600080fd5b506101396104dc565b60405161014691906117dd565b60405180910390f35b34801561015b57600080fd5b5061017660048036038101906101719190611898565b61056e565b60405161018391906118f3565b60405180910390f35b34801561019857600080fd5b506101a1610591565b6040516101ae919061191d565b60405180910390f35b3480156101c357600080fd5b506101de60048036038101906101d99190611938565b61059b565b6040516101eb91906118f3565b60405180910390f35b34801561020057600080fd5b506102096105ca565b604051610216919061199a565b60405180910390f35b34801561022b57600080fd5b506102346105d2565b60405161024191906119d1565b60405180910390f35b34801561025657600080fd5b5061025f6105db565b005b34801561026d57600080fd5b5061028860048036038101906102839190611898565b6105f7565b60405161029591906118f3565b60405180910390f35b3480156102aa57600080fd5b506102c560048036038101906102c091906119ec565b61062e565b6040516102d2919061191d565b60405180910390f35b3480156102e757600080fd5b506102f0610676565b005b61030c60048036038101906103079190611a59565b61068a565b005b34801561031a57600080fd5b50610323610827565b604051610330919061199a565b60405180910390f35b34801561034557600080fd5b5061034e610851565b60405161035b91906117dd565b60405180910390f35b34801561037057600080fd5b5061038b60048036038101906103869190611898565b6108e3565b60405161039891906118f3565b60405180910390f35b3480156103ad57600080fd5b506103c860048036038101906103c39190611898565b61095a565b6040516103d591906118f3565b60405180910390f35b6103f860048036038101906103f39190611a86565b61097d565b005b34801561040657600080fd5b50610421600480360381019061041c9190611898565b610be9565b60405161043093929190611ad5565b60405180910390f35b34801561044557600080fd5b50610460600480360381019061045b9190611b0c565b610c64565b60405161046d919061191d565b60405180910390f35b34801561048257600080fd5b5061049d60048036038101906104989190611b4c565b610ceb565b6040516104aa9190611d20565b60405180910390f35b3480156104bf57600080fd5b506104da60048036038101906104d591906119ec565b611040565b005b6060600380546104eb90611d71565b80601f016020809104026020016040519081016040528092919081815260200182805461051790611d71565b80156105645780601f1061053957610100808354040283529160200191610564565b820191906000526020600020905b81548152906001019060200180831161054757829003601f168201915b5050505050905090565b6000806105796110c3565b90506105868185856110cb565b600191505092915050565b6000600254905090565b6000806105a66110c3565b90506105b3858285611294565b6105be858585611320565b60019150509392505050565b600033905090565b6000600a905090565b6105e3611596565b6105f53033662386f26fc10000611320565b565b6000806106026110c3565b90506106238185856106148589610c64565b61061e9190611dd1565b6110cb565b600191505092915050565b60008060008373ffffffffffffffffffffffffffffffffffffffff1673ffffffffffffffffffffffffffffffffffffffff168152602001908152602001600020549050919050565b61067e611596565b6106886000611614565b565b600034116106cd576040517f08c379a00000000000000000000000000000000000000000000000000000000081526004016106c490611e51565b60405180910390fd5b6106d56116e4565b3481600001818152505081816020019067ffffffffffffffff16908167ffffffffffffffff16815250506000816040019073ffffffffffffffffffffffffffffffffffffffff16908173ffffffffffffffffffffffffffffffffffffffff1681525050600660003373ffffffffffffffffffffffffffffffffffffffff1673ffffffffffffffffffffffffffffffffffffffff1681526020019081526020016000208190806001815401808255809150506001900390600052602060002090600202016000909190919091506000820151816000015560208201518160010160006101000a81548167ffffffffffffffff021916908367ffffffffffffffff16021790555060408201518160010160086101000a81548173ffffffffffffffffffffffffffffffffffffffff021916908373ffffffffffffffffffffffffffffffffffffffff16021790555050505050565b6000600560009054906101000a900473ffffffffffffffffffffffffffffffffffffffff16905090565b60606004805461086090611d71565b80601f016020809104026020016040519081016040528092919081815260200182805461088c90611d71565b80156108d95780601f106108ae576101008083540402835291602001916108d9565b820191906000526020600020905b8154815290600101906020018083116108bc57829003601f168201915b5050505050905090565b6000806108ee6110c3565b905060006108fc8286610c64565b905083811015610941576040517f08c379a000000000000000000000000000000000000000000000000000000000815260040161093890611ee3565b60405180910390fd5b61094e82868684036110cb565b60019250505092915050565b6000806109656110c3565b9050610972818585611320565b600191505092915050565b600660003373ffffffffffffffffffffffffffffffffffffffff1673ffffffffffffffffffffffffffffffffffffffff168152602001908152602001600020805490508210610a01576040517f08c379a00000000000000000000000000000000000000000000000000000000081526004016109f890611f4f565b60405180910390fd5b6000600660003373ffffffffffffffffffffffffffffffffffffffff1673ffffffffffffffffffffffffffffffffffffffff1681526020019081526020016000208381548110610a5457610a53611f6f565b5b906000526020600020906002020190506000341115610a895734816000016000828254610a819190611dd1565b925050819055505b6000821115610be4578060010160009054906101000a900467ffffffffffffffff1667ffffffffffffffff16421015610af7576040517f08c379a0000000000000000000000000000000000000000000000000000000008152600401610aee90612010565b60405180910390fd5b8181600001541015610b3e576040517f08c379a0000000000000000000000000000000000000000000000000000000008152600401610b359061207c565b60405180910390fd5b81471015610b81576040517f08c379a0000000000000000000000000000000000000000000000000000000008152600401610b789061210e565b60405180910390fd5b81816000016000828254610b95919061212e565b925050819055503373ffffffffffffffffffffffffffffffffffffffff166108fc839081150290604051600060405180830381858888f19350505050158015610be2573d6000803e3d6000fd5b505b505050565b60066020528160005260406000208181548110610c0557600080fd5b9060005260206000209060020201600091509150508060000154908060010160009054906101000a900467ffffffffffffffff16908060010160089054906101000a900473ffffffffffffffffffffffffffffffffffffffff16905083565b6000600160008473ffffffffffffffffffffffffffffffffffffffff1673ffffffffffffffffffffffffffffffffffffffff16815260200190815260200160002060008373ffffffffffffffffffffffffffffffffffffffff1673ffffffffffffffffffffffffffffffffffffffff16815260200190815260200160002054905092915050565b610cf3611725565b6001831015610d37576040517f08c379a0000000000000000000000000000000000000000000000000000000008152600401610d2e906121ae565b60405180910390fd5b6001821015610d7b576040517f08c379a0000000000000000000000000000000000000000000000000000000008152600401610d729061221a565b60405180910390fd5b6000600660008673ffffffffffffffffffffffffffffffffffffffff1673ffffffffffffffffffffffffffffffffffffffff168152602001908152602001600020805480602002602001604051908101604052809291908181526020016000905b82821015610ea05783829060005260206000209060020201604051806060016040529081600082015481526020016001820160009054906101000a900467ffffffffffffffff1667ffffffffffffffff1667ffffffffffffffff1681526020016001820160089054906101000a900473ffffffffffffffffffffffffffffffffffffffff1673ffffffffffffffffffffffffffffffffffffffff1673ffffffffffffffffffffffffffffffffffffffff168152505081526020019060010190610ddc565b5050505090506000815190506000808214610ef05760008583610ec39190612269565b14610ecf576001610ed2565b60005b60ff168583610ee1919061229a565b610eeb9190611dd1565b610ef3565b60015b905080861115610f01578095505b600085600188610f11919061212e565b610f1b91906122cb565b905060008682610f2b9190611dd1565b905083811115610f39578390505b60008282610f47919061212e565b67ffffffffffffffff811115610f6057610f5f61230d565b5b604051908082528060200260200182016040528015610f9957816020015b610f866116e4565b815260200190600190039081610f7e5790505b50905060008390505b82811015610fff57868181518110610fbd57610fbc611f6f565b5b6020026020010151828583610fd2919061212e565b81518110610fe357610fe2611f6f565b5b602002602001018190525080610ff89061233c565b9050610fa2565b50611008611725565b858160000181815250508981602001818152505088816040018181525050818160600181905250809750505050505050509392505050565b611048611596565b600073ffffffffffffffffffffffffffffffffffffffff168173ffffffffffffffffffffffffffffffffffffffff16036110b7576040517f08c379a00000000000000000000000000000000000000000000000000000000081526004016110ae906123f6565b60405180910390fd5b6110c081611614565b50565b600033905090565b600073ffffffffffffffffffffffffffffffffffffffff168373ffffffffffffffffffffffffffffffffffffffff160361113a576040517f08c379a000000000000000000000000000000000000000000000000000000000815260040161113190612488565b60405180910390fd5b600073ffffffffffffffffffffffffffffffffffffffff168273ffffffffffffffffffffffffffffffffffffffff16036111a9576040517f08c379a00000000000000000000000000000000000000000000000000000000081526004016111a09061251a565b60405180910390fd5b80600160008573ffffffffffffffffffffffffffffffffffffffff1673ffffffffffffffffffffffffffffffffffffffff16815260200190815260200160002060008473ffffffffffffffffffffffffffffffffffffffff1673ffffffffffffffffffffffffffffffffffffffff168152602001908152602001600020819055508173ffffffffffffffffffffffffffffffffffffffff168373ffffffffffffffffffffffffffffffffffffffff167f8c5be1e5ebec7d5bd14f71427d1e84f3dd0314c0f7b2291e5b200ac8c7c3b92583604051611287919061191d565b60405180910390a3505050565b60006112a08484610c64565b90507fffffffffffffffffffffffffffffffffffffffffffffffffffffffffffffffff811461131a578181101561130c576040517f08c379a000000000000000000000000000000000000000000000000000000000815260040161130390612586565b60405180910390fd5b61131984848484036110cb565b5b50505050565b600073ffffffffffffffffffffffffffffffffffffffff168373ffffffffffffffffffffffffffffffffffffffff160361138f576040517f08c379a000000000000000000000000000000000000000000000000000000000815260040161138690612618565b60405180910390fd5b600073ffffffffffffffffffffffffffffffffffffffff168273ffffffffffffffffffffffffffffffffffffffff16036113fe576040517f08c379a00000000000000000000000000000000000000000000000000000000081526004016113f5906126aa565b60405180910390fd5b6114098383836116da565b60008060008573ffffffffffffffffffffffffffffffffffffffff1673ffffffffffffffffffffffffffffffffffffffff1681526020019081526020016000205490508181101561148f576040517f08c379a00000000000000000000000000000000000000000000000000000000081526004016114869061273c565b60405180910390fd5b8181036000808673ffffffffffffffffffffffffffffffffffffffff1673ffffffffffffffffffffffffffffffffffffffff16815260200190815260200160002081905550816000808573ffffffffffffffffffffffffffffffffffffffff1673ffffffffffffffffffffffffffffffffffffffff168152602001908152602001600020600082825401925050819055508273ffffffffffffffffffffffffffffffffffffffff168473ffffffffffffffffffffffffffffffffffffffff167fddf252ad1be2c89b69c2b068fc378daa952ba7f163c4a11628f55a4df523b3ef8460405161157d919061191d565b60405180910390a36115908484846116df565b50505050565b61159e6110c3565b73ffffffffffffffffffffffffffffffffffffffff166115bc610827565b73ffffffffffffffffffffffffffffffffffffffff1614611612576040517f08c379a0000000000000000000000000000000000000000000000000000000008152600401611609906127a8565b60405180910390fd5b565b6000600560009054906101000a900473ffffffffffffffffffffffffffffffffffffffff16905081600560006101000a81548173ffffffffffffffffffffffffffffffffffffffff021916908373ffffffffffffffffffffffffffffffffffffffff1602179055508173ffffffffffffffffffffffffffffffffffffffff168173ffffffffffffffffffffffffffffffffffffffff167f8be0079c531659141344cd1fd0a4f28419497f9722a3daafe3b4186f6b6457e060405160405180910390a35050565b505050565b505050565b604051806060016040528060008152602001600067ffffffffffffffff168152602001600073ffffffffffffffffffffffffffffffffffffffff1681525090565b6040518060800160405280600081526020016000815260200160008152602001606081525090565b600081519050919050565b600082825260208201905092915050565b60005b8381101561178757808201518184015260208101905061176c565b60008484015250505050565b6000601f19601f8301169050919050565b60006117af8261174d565b6117b98185611758565b93506117c9818560208601611769565b6117d281611793565b840191505092915050565b600060208201905081810360008301526117f781846117a4565b905092915050565b600080fd5b600073ffffffffffffffffffffffffffffffffffffffff82169050919050565b600061182f82611804565b9050919050565b61183f81611824565b811461184a57600080fd5b50565b60008135905061185c81611836565b92915050565b6000819050919050565b61187581611862565b811461188057600080fd5b50565b6000813590506118928161186c565b92915050565b600080604083850312156118af576118ae6117ff565b5b60006118bd8582860161184d565b92505060206118ce85828601611883565b9150509250929050565b60008115159050919050565b6118ed816118d8565b82525050565b600060208201905061190860008301846118e4565b92915050565b61191781611862565b82525050565b6000602082019050611932600083018461190e565b92915050565b600080600060608486031215611951576119506117ff565b5b600061195f8682870161184d565b93505060206119708682870161184d565b925050604061198186828701611883565b9150509250925092565b61199481611824565b82525050565b60006020820190506119af600083018461198b565b92915050565b600060ff82169050919050565b6119cb816119b5565b82525050565b60006020820190506119e660008301846119c2565b92915050565b600060208284031215611a0257611a016117ff565b5b6000611a108482850161184d565b91505092915050565b600067ffffffffffffffff82169050919050565b611a3681611a19565b8114611a4157600080fd5b50565b600081359050611a5381611a2d565b92915050565b600060208284031215611a6f57611a6e6117ff565b5b6000611a7d84828501611a44565b91505092915050565b60008060408385031215611a9d57611a9c6117ff565b5b6000611aab85828601611883565b9250506020611abc85828601611883565b9150509250929050565b611acf81611a19565b82525050565b6000606082019050611aea600083018661190e565b611af76020830185611ac6565b611b04604083018461198b565b949350505050565b60008060408385031215611b2357611b226117ff565b5b6000611b318582860161184d565b9250506020611b428582860161184d565b9150509250929050565b600080600060608486031215611b6557611b646117ff565b5b6000611b738682870161184d565b9350506020611b8486828701611883565b9250506040611b9586828701611883565b9150509250925092565b611ba881611862565b82525050565b600081519050919050565b600082825260208201905092915050565b6000819050602082019050919050565b611be381611a19565b82525050565b611bf281611824565b82525050565b606082016000820151611c0e6000850182611b9f565b506020820151611c216020850182611bda565b506040820151611c346040850182611be9565b50505050565b6000611c468383611bf8565b60608301905092915050565b6000602082019050919050565b6000611c6a82611bae565b611c748185611bb9565b9350611c7f83611bca565b8060005b83811015611cb0578151611c978882611c3a565b9750611ca283611c52565b925050600181019050611c83565b5085935050505092915050565b6000608083016000830151611cd56000860182611b9f565b506020830151611ce86020860182611b9f565b506040830151611cfb6040860182611b9f565b5060608301518482036060860152611d138282611c5f565b9150508091505092915050565b60006020820190508181036000830152611d3a8184611cbd565b905092915050565b7f4e487b7100000000000000000000000000000000000000000000000000000000600052602260045260246000fd5b60006002820490506001821680611d8957607f821691505b602082108103611d9c57611d9b611d42565b5b50919050565b7f4e487b7100000000000000000000000000000000000000000000000000000000600052601160045260246000fd5b6000611ddc82611862565b9150611de783611862565b9250828201905080821115611dff57611dfe611da2565b5b92915050565b7f6d73672e76616c7565203e203000000000000000000000000000000000000000600082015250565b6000611e3b600d83611758565b9150611e4682611e05565b602082019050919050565b60006020820190508181036000830152611e6a81611e2e565b9050919050565b7f45524332303a2064656372656173656420616c6c6f77616e63652062656c6f7760008201527f207a65726f000000000000000000000000000000000000000000000000000000602082015250565b6000611ecd602583611758565b9150611ed882611e71565b604082019050919050565b60006020820190508181036000830152611efc81611ec0565b9050919050565b7f696e646578203c2064625b6d73672e73656e6465725d2e6c656e677468000000600082015250565b6000611f39601d83611758565b9150611f4482611f03565b602082019050919050565b60006020820190508181036000830152611f6881611f2c565b9050919050565b7f4e487b7100000000000000000000000000000000000000000000000000000000600052603260045260246000fd5b7f626c6f636b2e74696d657374616d70203e3d206465706f7369742e776974686460008201527f72617754696d6500000000000000000000000000000000000000000000000000602082015250565b6000611ffa602783611758565b915061200582611f9e565b604082019050919050565b6000602082019050818103600083015261202981611fed565b9050919050565b7f6465706f7369742e616d6f756e74203e3d207769746864726177416d6f756e74600082015250565b6000612066602083611758565b915061207182612030565b602082019050919050565b6000602082019050818103600083015261209581612059565b9050919050565b7f616464726573732874686973292e62616c616e6365203e3d207769746864726160008201527f77416d6f756e7400000000000000000000000000000000000000000000000000602082015250565b60006120f8602783611758565b91506121038261209c565b604082019050919050565b60006020820190508181036000830152612127816120eb565b9050919050565b600061213982611862565b915061214483611862565b925082820390508181111561215c5761215b611da2565b5b92915050565b7f706167654e756d206d757374203e3d2031000000000000000000000000000000600082015250565b6000612198601183611758565b91506121a382612162565b602082019050919050565b600060208201905081810360008301526121c78161218b565b9050919050565b7f7061676553697a65206d757374203e3d20310000000000000000000000000000600082015250565b6000612204601283611758565b915061220f826121ce565b602082019050919050565b60006020820190508181036000830152612233816121f7565b9050919050565b7f4e487b7100000000000000000000000000000000000000000000000000000000600052601260045260246000fd5b600061227482611862565b915061227f83611862565b92508261228f5761228e61223a565b5b828206905092915050565b60006122a582611862565b91506122b083611862565b9250826122c0576122bf61223a565b5b828204905092915050565b60006122d682611862565b91506122e183611862565b92508282026122ef81611862565b9150828204841483151761230657612305611da2565b5b5092915050565b7f4e487b7100000000000000000000000000000000000000000000000000000000600052604160045260246000fd5b600061234782611862565b91507fffffffffffffffffffffffffffffffffffffffffffffffffffffffffffffffff820361237957612378611da2565b5b600182019050919050565b7f4f776e61626c653a206e6577206f776e657220697320746865207a65726f206160008201527f6464726573730000000000000000000000000000000000000000000000000000602082015250565b60006123e0602683611758565b91506123eb82612384565b604082019050919050565b6000602082019050818103600083015261240f816123d3565b9050919050565b7f45524332303a20617070726f76652066726f6d20746865207a65726f2061646460008201527f7265737300000000000000000000000000000000000000000000000000000000602082015250565b6000612472602483611758565b915061247d82612416565b604082019050919050565b600060208201905081810360008301526124a181612465565b9050919050565b7f45524332303a20617070726f766520746f20746865207a65726f20616464726560008201527f7373000000000000000000000000000000000000000000000000000000000000602082015250565b6000612504602283611758565b915061250f826124a8565b604082019050919050565b60006020820190508181036000830152612533816124f7565b9050919050565b7f45524332303a20696e73756666696369656e7420616c6c6f77616e6365000000600082015250565b6000612570601d83611758565b915061257b8261253a565b602082019050919050565b6000602082019050818103600083015261259f81612563565b9050919050565b7f45524332303a207472616e736665722066726f6d20746865207a65726f20616460008201527f6472657373000000000000000000000000000000000000000000000000000000602082015250565b6000612602602583611758565b915061260d826125a6565b604082019050919050565b60006020820190508181036000830152612631816125f5565b9050919050565b7f45524332303a207472616e7366657220746f20746865207a65726f206164647260008201527f6573730000000000000000000000000000000000000000000000000000000000602082015250565b6000612694602383611758565b915061269f82612638565b604082019050919050565b600060208201905081810360008301526126c381612687565b9050919050565b7f45524332303a207472616e7366657220616d6f756e742065786365656473206260008201527f616c616e63650000000000000000000000000000000000000000000000000000602082015250565b6000612726602683611758565b9150612731826126ca565b604082019050919050565b6000602082019050818103600083015261275581612719565b9050919050565b7f4f776e61626c653a2063616c6c6572206973206e6f7420746865206f776e6572600082015250565b6000612792602083611758565b915061279d8261275c565b602082019050919050565b600060208201905081810360008301526127c181612785565b905091905056fea26469706673582212207fb65263b003bdeeb05fe6da6c5566dc45210733d13d7307a089b8e4e83aaf3964736f6c63430008130033",
  "linkReferences": {},
  "deployedLinkReferences": {}
}